:100000000C947B010C94A3010C94A3010C94A30108
:100010000C94A3010C94A3010C94A3010C94A301D0
:100020000C94A3010C94A3010C949F180C94311709
:100030000C94A3010C94A3010C94A3010C94A301B0
:100040000C94A3010C94A3010C94A3010C94A301A0
:100050000C94A3010C94A3010C94A3010C94380FED
:100060000C94A3010C94AB130C94DD130C94A3011A
:100070000C94A3010C94A3010C94A3010C94A30170
:100080000C94A3010C94A3010C94A3010C94A30160
:100090000C94A3010C94A3010C94A3010C94A30150
:1000A0000C94A3010C94A3010C94A3019510981037
:1000B00087108B109110B910B910B9109C10A010B6
:1000C000A410AA10AE10B910B41072756E2D627221
:1000D000696467650A000A000A0007060504010052
:1000E000080A0B0C0D090000000200090F000003B4
:1000F0000401000C000000000000000000000000EF
:100100000000000000040802011040804010204060
:1001100080408008020401804020100201108010FD
:1001200020404020040404040403040502020202E7
:100130000403020202020606060606060404020280
:10014000020404000000002300260029002C002FD8
:100150000000000000250028002B002E00310000C8
:10016000000000240027002A002D003000080B00AA
:10017000020202010009040000010202000005243D
:1001800000100105240101010424020605240600D3
:10019000010705810310004009040100020A000064
:1001A000000705020240000007058302400000121C
:1001B000010002EF020140412341800001010203DE
:1001C00001120100020000004041234180000101B2
:1001D00002030141726475696E6F204C4C4300410B
:1001E000726475696E6F2059756E0004030904000E
:1001F000407A10F35A00A0724E18090010A5D4E8F6
:100200000000E87648170000E40B54020000CA9A88
:100210003B000000E1F505000080969800000040DA
:10022000420F000000A0860100000010270000001F
:1002300000E803000000006400000000000A000065
:100240000000000100000000002C76D888DC674F19
:100250000823DFC1DFAE59E1B1B796E5E3E453C649
:100260003AE651997696E8E6C28426EB898C9B6241
:10027000ED407C6FFCEFBC9C9F40F2BAA56FA5F4EB
:1002800090055A2AF75C936B6CF9676DC11BFCE013
:10029000E40D47FEF520E6B500D0ED902E03009466
:1002A0003577050080841E080000204E0A000000FB
:1002B000C80C333333330F986E12831141EF8D2105
:1002C00014893BE65516CFFEE6DB18D1844B381B6C
:1002D000F77C1D901DA4BBE424203284725E228131
:1002E00000C9F124ECA1E53D2700BE06EB09F40BA3
:1002F00049120D14E20611241FBECFEFDAE0DEBF73
:10030000CDBF14E0A0E0B1E0E4E6F1E402C0059066
:100310000D92A230B107D9F725E0A2E0B4E001C008
:100320001D92A135B207E1F712E0C4EFD2E004C09C
:100330002297FE010E94B21BCA3ED107C9F70E9454
:10034000DB1A0C94A5200C94000082E094E00E943B
:100350003F1988E094E00E943F1984E194E00C94F6
:100360003F19EF92FF920F931F93CF93DF938C016E
:10037000EB017A0140E060E08AE194E00E94530ED4
:10038000B8018AE194E00E94B11441E060E08AE1A2
:1003900094E00E94530EBE018AE194E00E94B114E1
:1003A000B701882777FD8095982FDF91CF911F9116
:1003B0000F91FF90EF900C94B10F0F931F93CF9379
:1003C000DF93CDB7DEB7A4970FB6F894DEBF0FBEAC
:1003D000CDBF26E040E950ED63E070E080913B0442
:1003E00090913C040E94491382E394E00E94E40847
:1003F00040E855E260E070E088E494E00E94431237
:100400008DE394E00E94E50B61E0809120010E9461
:10041000BA1061E0809120010E94F31060E082E058
:100420000E94BA1061E086E10E94BA1061E082E0A9
:100430000E94F31060E083E00E94BA1061E083E064
:100440000E94F3100CE111E061E0F80181918F014D
:100450000E94BA10F1E000321F07B1F720E042E03D
:1004600060E18AE194E00E94740E60911A0170913B
:100470001B014AE0CE0143960E94FB1960E471E043
:10048000CE010D960E94AD19BE016D5E7F4FCE016B
:100490000D960E94AD1A66E471E00E94C01ABC017C
:1004A000CE0101960E94DA196FE471E0CE01079641
:1004B0000E94AD1940EA5FE0BE016F5F7F4FCE0141
:1004C00007960E94B101CE0107960E943F19CE0106
:1004D00001960E943F19CE010D960E943F19CE0150
:1004E00043960E943F1960911601709117014AE0EE
:1004F000CE010D960E94FB196091180170911901AF
:100500004AE0CE0149960E94FB196DE571E0CE01EB
:1005100043960E94AD19BE01675E7F4FCE014396A0
:100520000E94AD1A60E671E00E94C01ABE01635FCE
:100530007F4F0E94AD1A67E671E00E94C01ABC01AD
:10054000CE0101960E94DA196AE671E0CE010796A3
:100550000E94AD1940EA5FE0BE016F5F7F4FCE01A0
:1005600007960E94B101CE0107960E943F19CE0165
:1005700001960E943F19CE0143960E943F19CE0179
:1005800049960E943F19CE010D960E943F1965E7DA
:1005900071E0CE010D960E94AD1964E174E0CE01C8
:1005A0000D960E94AD1A6BE471E00E94C01ABC0166
:1005B000CE0101960E94DA19609112017091130127
:1005C0004AE0CE0143960E94FB196091140170919C
:1005D00015014AE0CE014F960E94FB196EE771E0CB
:1005E000CE0149960E94AD19BE01615E7F4FCE01DA
:1005F00049960E94AD1A6AE871E00E94C01ABE01D5
:100600006D5E7F4F0E94AD1A6AE471E00E94C01ACD
:10061000BC01CE0107960E94DA1940EA5FE0BE01F4
:100620006F5F7F4FCE0107960E94B101CE01079602
:100630000E943F19CE0149960E943F19CE014F9664
:100640000E943F19CE0143960E943F19CE010196A8
:100650000E943F19CE010D960E943F198AE194E055
:100660000E94650E64EF71E080E090E00E94B10F9F
:100670008AE194E00E946C0EA4960FB6F894DEBF57
:100680000FBECDBFDF91CF911F910F91089561E013
:1006900081E00E94F31060E086E10E94F31041E0E7
:1006A00060E08AE194E00E94530E64E971E08AE11F
:1006B00094E00C94BF146DE971E088E094E00E942E
:1006C000E31982E00E942911909311048093100491
:1006D000019731F460EA71E088E094E00E94E31948
:1006E0006DE971E082E094E00E94E31983E00E94EA
:1006F000291190930F0480930E04019731F460EA5E
:1007000071E082E094E00C94E31908950F931F9335
:10071000CF93DF93CDB7DEB7CA55D1090FB6F894A2
:10072000DEBF0FBECDBF8C0162EF73E00E94AD193A
:100730001C821B8248EE53E060E070E04D835E83D4
:100740006F8378878CEB93E09A83898382E394E0CC
:100750009E878D871A8A1B8A1C8A61E372E0CE010C
:100760008B5A9F4F0E94AD19BE016B5A7F4FCE012D
:1007700001960E94940DCE018B5A9F4F0E943F1903
:1007800066E372E0CE018B5A9F4F0E94AD19BE0105
:100790006B5A7F4FCE0101960E94860CCE018B5A78
:1007A0009F4F0E943F19CE0101960E944D0DCE0130
:1007B00001960E94510C181619065CF4CE010196A0
:1007C0000E945B0C8A3099F3682FC8010E949A1A24
:1007D000EECFCE0101960E948D0DC801C65ADF4FA3
:1007E0000FB6F894DEBF0FBECDBFDF91CF911F9142
:1007F0000F9108950F931F93CF93DF93CDB7DEB77B
:10080000C458D1090FB6F894DEBF0FBECDBF62EF5A
:1008100073E0CE0181589F4F0E94AD19CE01019621
:100820000E948603BE016F5F7F4FCE0181589F4FAC
:100830000E94831ACE0101960E943F1960E373E083
:10084000CE0181589F4F0E948A1A00E010E0802F4D
:100850000E944C104AE0BC01CE0101960E94FB1997
:10086000BE016F5F7F4FCE0181589F4F0E94831A58
:10087000CE0101960E943F190630110539F06DE353
:1008800072E0CE0181589F4F0E948A1A0F5F1F4F5E
:1008900007301105E1F622E04FE352E06DE374E02A
:1008A000CE0101960E94E70BCE0101960E94230B18
:1008B000882399F0BE0161587F4FCE0101960E94B6
:1008C000CC14CE0101960E94A10BBE0161587F4F4E
:1008D00088E494E00E94CC1406C063E572E088E4EA
:1008E00094E00E94DE1468E97AE380E090E00E94E0
:1008F000B10F0E945B0340910A0150910B0160917E
:100900000C0170910D0122E0CE0183599F4F0E948E
:10091000271A6DE672E0CE0189599F4F0E94AD19EA
:10092000BE0163597F4FCE0189599F4F0E94AD1A76
:100930006AE471E00E94C01ABC01CE01855A9F4F43
:100940000E94DA1940910E0150910F01609110013F
:100950007091110122E0CE0187589F4F0E94271A03
:1009600062E772E0CE018D589F4F0E94AD19BE0123
:1009700067587F4FCE018D589F4F0E94AD1A6AE491
:1009800071E00E94C01ABC01CE018F599F4F0E9496
:10099000DA1940ED57E0BE01655A7F4FCE018F59FD
:1009A0009F4F0E94B101CE018F599F4F0E943F1966
:1009B000CE018D589F4F0E943F19CE0187589F4FFF
:1009C0000E943F19CE01855A9F4F0E943F19CE01C8
:1009D00089599F4F0E943F19CE0183599F4F0E9412
:1009E0003F194091060150910701609108017091F3
:1009F000090122E0CE0183599F4F0E94271A6AE71E
:100A000072E0CE0189599F4F0E94AD19BE01635912
:100A10007F4FCE0189599F4F0E94AD1A65E872E061
:100A20000E94C01ABC01CE01855A9F4F0E94DA195C
:100A300040910601509107016091080170910901F0
:100A400022E0CE0187589F4F0E94271A6BE872E080
:100A5000CE018D589F4F0E94AD19BE0167587F4F40
:100A6000CE018D589F4F0E94AD1A6AE471E00E943A
:100A7000C01ABC01CE018F599F4F0E94DA1940ED78
:100A800057E0BE01655A7F4FCE018F599F4F0E949C
:100A9000B101CE018F599F4F0E943F19CE018D5851
:100AA0009F4F0E943F19CE0187589F4F0E943F19C8
:100AB000CE01855A9F4F0E943F19CE0189599F4F01
:100AC0000E943F19CE0183599F4F0E943F1967E949
:100AD00072E0CE01855A9F4F0E94AD1960911204B9
:100AE000709113044AE0CE0183599F4F0E94FB1975
:100AF00067EA72E0CE0189599F4F0E94AD19BE018D
:100B000063597F4FCE0189599F4F0E94AD1A6DEAFC
:100B100072E00E94C01ABC01CE018F599F4F0E9403
:100B2000DA1940ED57E0BE01655A7F4FCE018F596B
:100B30009F4F0E94B101CE018F599F4F0E943F19D4
:100B4000CE0189599F4F0E943F19CE0183599F4F73
:100B50000E943F19CE01855A9F4F0E943F1968EBB2
:100B600072E0CE01855A9F4F0E94AD196AEC72E087
:100B7000CE018F599F4F0E94AD1940ED57E0BE0145
:100B8000655A7F4FCE018F599F4F0E94B101CE0110
:100B90008F599F4F0E943F19CE01855A9F4F0E9447
:100BA0003F196AED72E0CE01855A9F4F0E94AD1940
:100BB0006CEE72E0CE018F599F4F0E94AD1940ED4F
:100BC00057E0BE01655A7F4FCE018F599F4F0E945B
:100BD000B101CE018F599F4F0E943F19CE01855A16
:100BE0009F4F0E943F196CEF72E0CE01855A9F4FD4
:100BF0000E94AD196EE073E0CE018F599F4F0E94A5
:100C0000AD1940ED57E0BE01655A7F4FCE018F59B7
:100C10009F4F0E94B101CE018F599F4F0E943F19F3
:100C2000CE01855A9F4F0E943F196EE173E0CE01BD
:100C300089599F4F0E94AD1962E074E0CE01895935
:100C40009F4F0E94AD1A68E471E00E94C01ABC0177
:100C5000CE01855A9F4F0E94DA1969E273E0CE01F6
:100C600083599F4F0E94AD1968E074E0CE0183590B
:100C70009F4F0E94AD1A67E471E00E94C01ABC0148
:100C8000CE018F599F4F0E94DA1940ED57E0BE0107
:100C9000655A7F4FCE018F599F4F0E94B101CE01FF
:100CA0008F599F4F0E943F19CE0183599F4F0E9439
:100CB0003F19CE01855A9F4F0E943F19CE01895995
:100CC0009F4F0E943F1964E373E0CE01855A9F4F06
:100CD0000E94AD1962E473E0CE018F599F4F0E94CC
:100CE000AD1940ED57E0BE01655A7F4FCE018F59D7
:100CF0009F4F0E94B101CE018F599F4F0E943F1913
:100D0000CE01855A9F4F0E943F196AEA71E0CE01D9
:100D1000855A9F4F0E94AD1966E573E0CE018F5949
:100D20009F4F0E94AD1940ED57E0BE01655A7F4FBD
:100D3000CE018F599F4F0E94B101CE018F599F4F15
:100D40000E943F19CE01855A9F4F0E943F190E9471
:100D50004703CE0101960E94D40BCE0181589F4FCC
:100D60000E943F19CC57DF4F0FB6F894DEBF0FBE7D
:100D7000CDBFDF91CF911F910F910895CF92EF9248
:100D80000F938CE0C82E9BE0E92E0AE029E048E0B2
:100D900067E08AE194E00E94120F67E673E084E165
:100DA00094E00E94AD196DE971E088E094E00E9442
:100DB000AD196DE971E082E094E00F91EF90CF9072
:100DC0000C94AD190C94A501FC01238134812627D4
:100DD000022E2295207F2025032E322F22952F7060
:100DE0000226269532272327220F220F220F2025A5
:100DF000FC01348323830895CF93DF93EC018D812D
:100E00009E81DC01ED91FC916C810190F081E02DDF
:100E100009958D819E81DC01ED91FC910190F0811D
:100E2000E02D6B81DF91CF9109948F929F92AF92C9
:100E3000BF92CF92DF92EF92FF92CF93DF93EC01BC
:100E40006B010E94820F4B015C01E12CF12C8D8122
:100E50009E81DC01ED91FC910680F781E02D0995E2
:100E600097FF0DC00E94820F681979098A099B09B2
:100E70006C157D058E059F0550F38FEF9FEFDF9179
:100E8000CF91FF90EF90DF90CF90BF90AF909F9069
:100E90008F900895CF93DF93EC018D819E81DC01CB
:100EA000ED91FC910480F581E02D09951816190645
:100EB00054F48D819E81DC01ED91FC910680F781D7
:100EC000E02D0995EACFDF91CF9108952F923F92BF
:100ED0004F925F926F927F928F929F92AF92BF924A
:100EE000CF92DF92EF92FF920F931F93CF93DF93F6
:100EF000CDB7DEB72D970FB6F894DEBF0FBECDBFCE
:100F00003C011B013C832B83BF82AE825801AC0C99
:100F1000BD1CA40EB51EBD824B2C512CCA01860FE0
:100F2000971F99878887D901A00FB11FBB87AA8710
:100F3000F601EE0DFF1DFD87EC87D30118968C910D
:100F4000581608F026C1EFEFFFEFD3011496FC937B
:100F5000EE93139715968D919C911697DC01ED9168
:100F6000FC910190F081E02D6FEF09956FEFC301C7
:100F70000E94E406F30185819681DC01ED91FC91EC
:100F80000190F081E02DD3016C910995F30160810E
:100F9000C3010E94E406D30115968D919C9116978A
:100FA000DC01ED91FC910190F081E02D6D810995BE
:100FB000642DC3010E94E406F30185819681DC0162
:100FC000ED91FC910190F081E02D6A2D09956A2D3B
:100FD000C3010E94E406610188859985C816D90677
:100FE000A1F0F301858196818601DC01ED91FC91F0
:100FF0000190F081E02DD6016D916D010995F80108
:101000006081C3010E94E406E7CFCB80DC808A8543
:101010009B85C816D906B1F0D30115968D919C9188
:1010200016978601DC01ED91FC910190F081E02D95
:10103000D6016D916D010995F8016081C3010E948F
:10104000E406E5CF87018C859D8508171907B1F067
:10105000D30115968D919C9116976801DC01ED9155
:10106000FC910190F081E02DD8016D918D010995E1
:10107000F6016081C3010E94E406E5CFC3010E942E
:10108000FC0664E670E0C3010E9415078F3F9105DE
:1010900009F074C0EFEFFFEFD3011496FC93EE93C9
:1010A00013976FEFC3010E94E40665E070E0C3018F
:1010B0000E941507D3016C91262F30E08217930709
:1010C00009F05CC0C3010E94E4066AE070E0C3015D
:1010D0000E9415078C0197FD51C0682FC3010E9423
:1010E000E4066AE070E0C3010E9415076C0197FDF9
:1010F00045C0682FC3010E94E4060A831982098152
:101100001A810C0D1D1DC12CD12C65E070E0C301AE
:10111000C016D106A1F0C814D90489F00E941507A1
:1011200097FD09C0EE81FF81EC0DFD1D8083682FC6
:10113000C3010E94E406BFEFCB1ADB0AE6CF0E9490
:1011400015076C0197FD1AC065E070E0C3010E94AD
:10115000150797FD13C0DC2CCC24C80ED91EF30153
:10116000838194818C159D0549F480818F5F8083F4
:10117000C8018016910678F4C4010DC0539464E64A
:1011800070E080E090E00E94B10FC3010E944A0726
:10119000D4CE8FEF9FEF2D960FB6F894DEBF0FBE23
:1011A000CDBFDF91CF911F910F91FF90EF90DF9016
:1011B000CF90BF90AF909F908F907F906F905F90F7
:1011C0004F903F902F9008953F924F925F926F9271
:1011D0007F928F929F92AF92BF92CF92DF92EF92C7
:1011E000FF920F931F93CF93DF93CDB7DEB72E9768
:1011F0000FB6F894DEBF0FBECDBF3C01DC011796E1
:101200008C9117978111CFC081E017968C93C30101
:101210000E944A0768EE73E080E090E00E94B10F00
:10122000F30185819681DC01ED91FC910480F581CB
:10123000E02D09951816190654F355E0552E44244F
:10124000439462E3362EE6E3F1E0DE011696852D47
:1012500001900D928A95E1F7F3014086812C912C43
:10126000A12CB12CC12CD12CE12CF12C00E010E0F0
:1012700020E030E045E050E0BE016A5F7F4FC301EF
:101280000E94660763E0D30115968D919C91169795
:101290000E94C1146AEF70E080E090E00E94B10FFC
:1012A00068ED70E0F301858196810E948E146AEFEB
:1012B00070E080E090E00E94B10F66ED70E0D30135
:1012C00015968D919C9116970E948E1464EF71E093
:1012D00080E090E00E94B10F6AEC70E0F30185813C
:1012E00096810E948E1464EF71E080E090E00E948D
:1012F000B10FC3010E944A07EBE3F1E0DE01119652
:10130000852D01900D928A95E1F7D30118963C92B4
:1013100044E0842E912CFE013B965F0120E030E0FA
:1013200045E050E0BE016F5F7F4FC3010E9466073A
:101330008F3FFFEF9F0739F468EE73E080E090E0A5
:101340000E94B10F80CF2B852111FFCF049711F59B
:101350002C8530E02053310944E6429FC001439F71
:10136000900D11242D8530E0205331096AE0629FF1
:10137000A001639F500D1124840F951F2E8530E02E
:1013800020533109820F931FD30112969C938E93A1
:10139000119705C084E690E0F3019283818382E394
:1013A000D30118968C932E960FB6F894DEBF0FBE1D
:1013B000CDBFDF91CF911F910F91FF90EF90DF9004
:1013C000CF90BF90AF909F908F907F906F905F90E5
:1013D0004F903F9008951092320489E994E09093E1
:1013E0003804809337041092390410923A04909391
:1013F0003C0480933B040895CF93DF931F92CDB7B5
:10140000DEB76983DC01ED91FC910280F381E02D70
:1014100041E050E0BE016F5F7F4F09950F90DF9173
:10142000CF91089508956F927F928F929F92AF927D
:10143000BF92CF92DF92EF92FF920F931F93CF93C1
:10144000DF9300D01F92CDB7DEB79B013A01FC01BC
:10145000E85AFF4F40814F3F21F147E649833196DB
:1014600040814A83399788248394912CCE01039636
:101470005C01C12CD12CE12CF12C830142E050E025
:10148000BE016F5F7F4F808191810E9466078B81D3
:10149000882329F090E091958195910904C0C301BA
:1014A00002C08FEF9FEF0F900F900F90DF91CF91C1
:1014B0001F910F91FF90EF90DF90CF90BF90AF9072
:1014C0009F908F907F906F9008958F929F92AF9290
:1014D000BF92CF92DF92EF92FF920F931F9348013A
:1014E0005901C12CD12CE12CF12C00E010E020E0BE
:1014F00030E00E9466071F910F91FF90EF90DF9000
:10150000CF90BF90AF909F908F9008952F923F9271
:101510004F925F926F927F928F929F92AF92BF9203
:10152000CF92DF92EF92FF920F931F93CF93DF93AF
:10153000CDB7DEB728970FB6F894DEBF0FBECDBF8C
:101540003C018B01FC011382128288EE93E0A0E043
:10155000B0E084839583A683B7838EE993E091837B
:1015600080831301F0E52F0E311CF10131832083BC
:101570007301F2E5EF0EF11C62EF73E0C7014887DB
:101580000E94AD19230188E5480E511C4885F201DF
:101590004083B801C7010E94E31982E7898387E786
:1015A0008A8381E68B8386E48E83F2018081FE014B
:1015B000E80FF11D81818F8381E090E0F30197872F
:1015C0008687EA5AFF4F00811181F701208131811E
:1015D00092E0892E912CCE0104965C01C12CD12C75
:1015E000E12CF12C42E050E0BE016A5F7F4FF10137
:1015F000808191810E9466078C81882321F08FEF82
:10160000F201808307C0F301E75AFF4F8D81808389
:10161000F301148628960FB6F894DEBF0FBECDBF37
:10162000DF91CF911F910F91FF90EF90DF90CF90BE
:10163000BF90AF909F908F907F906F905F904F90F2
:101640003F902F900895FC01E85AFF4F81E0908170
:101650009F3F09F480E00895EF92FF920F931F934C
:10166000CF93DF9300D01F92CDB7DEB77C01FC0192
:101670008485811127C0158687E489838FE38B8356
:10168000E75AFF4F80818A8300E410E09701205FD2
:101690003F4F43E050E0BE016F5F7F4F399780813D
:1016A00091810E94650A9C01215031092E3F3F4FD4
:1016B00018F0F701148606C0F70195859F5F95879E
:1016C000815084870F900F900F90DF91CF911F91E1
:1016D0000F91FF90EF900895CF93DF93EC010E945C
:1016E0002C0B8C85882359F081508C878D8591E057
:1016F000980F9D87C80FD11D888990E002C08FEF99
:101700009FEFDF91CF910895CF93DF93EC010E947B
:101710002C0B8C85882331F08D85C80FD11D8889CD
:1017200090E002C08FEF9FEFDF91CF910895CF93AC
:10173000DF93EC010E942C0B8C8590E0DF91CF9120
:101740000895EF92FF920F931F93CF93DF9300D0F2
:101750001F92CDB7DEB77C0128E5E20EF11CF70140
:1017600020812F3FB9F026E62983319620812A83F4
:10177000399701E010E09E012D5F3F4F42E050E0BD
:10178000BE016F5F7F4F808191810E94650A8FEF5C
:10179000F70180830F900F900F90DF91CF911F91F1
:1017A0000F91FF90EF900895CF93DF93EC018EE9B6
:1017B00093E099838883CE010E94A10BCE018E5ABB
:1017C0009F4FDF91CF910C943F1981E00895CF9303
:1017D000DF93EC01BA01422F22E334E00E94860A33
:1017E000CE01DF91CF91089582E394E090933E047F
:1017F00080933D04089508950F931F93CF93DF9333
:1018000000D01F92CDB7DEB729E42983FC012685DD
:101810002A836B8300E010E020E030E043E050E0FA
:10182000BE016F5F7F4F848595850E94650A81E0C8
:1018300090E00F900F900F90DF91CF911F910F913B
:101840000895EF92FF920F931F93CF93DF9300D0F1
:101850001F92CDB7DEB77C01FC018289811117C0D0
:10186000138A8FE4898386858A8380E48B8397013A
:101870002C5E3F4F00E410E043E050E0BE016F5F9C
:101880007F4F848595850E94650AF701828B0F90B2
:101890000F900F90DF91CF911F910F91FF90EF90DC
:1018A0000895CF93DF93EC010E94210C8A8990E088
:1018B000DF91CF910895CF93DF93EC010E94210C2B
:1018C0008A89882359F081508A8B8B8991E0980FFF
:1018D0009B8BC80FD11D8C8990E002C08FEF9FEFCA
:1018E000DF91CF910895CF93DF93EC010E94210CFB
:1018F0008A89882331F08B89C80FD11D8C8990E0AB
:1019000002C08FEF9FEFDF91CF9108950F931F9348
:10191000CF93DF93EC018B016AEA73E08F8598899E
:101920000E948A1AB8018F859889DF91CF911F9103
:101930000F910C94831A6F927F928F929F92AF9225
:10194000BF92CF92DF92EF92FF920F931F93CF93AC
:10195000DF9300D01F92CDB7DEB73C0182E58B83C9
:10196000D3011F96ED91FC91509704811581208140
:10197000318182E0882E912CFE0131965F01C12CCD
:10198000D12CE12CF12C41E050E0BE016D5F7F4F86
:101990001C968D919C911D970E9466078A81D301A8
:1019A0001E968C931E971F960D911C9150970115B2
:1019B000110531F0C8010E943F19C8010E94F01AB8
:1019C000F301108A17868981811102C081E0818B21
:1019D0000F900F900F90DF91CF911F910F91FF907B
:1019E000EF90DF90CF90BF90AF909F908F907F90BF
:1019F0006F9008950F931F93CF93DF9300D01F92A2
:101A0000CDB7DEB722E72983FC0126852A8301E0D2
:101A100010E09E012D5F3F4F42E050E0BE016F5F3E
:101A20007F4F848595850E94650A81E09B81913076
:101A300009F080E00F900F900F90DF91CF911F91F0
:101A40000F9108950F931F93CF93DF9300D000D091
:101A5000CDB7DEB727E52B83FC0126852C8302E07A
:101A600010E09E012F5F3F4F42E050E0BE016D5FEE
:101A70007F4F848595850E94650A898190E0982F23
:101A800088272A81820F911D0F900F900F900F9041
:101A9000DF91CF911F910F910895CF93DF93EC01C8
:101AA0000E949B0CCE010E94FA0C882339F064E658
:101AB00070E080E090E00E94B10FF4CFCE01DF91A2
:101AC000CF910C94220DEF92FF920F931F93CF931F
:101AD000DF9300D0CDB7DEB77C01FC01818988237C
:101AE00089F087E7898386858A8300E010E020E01B
:101AF00030E042E050E0BE016F5F7F4F8485958506
:101B00000E94650AF701118A0F900F90DF91CF9123
:101B10001F910F91FF90EF9008952CEB33E0FC01A3
:101B2000318320830C94630DEF92FF920F931F93E8
:101B3000CF93DF9300D0CDB7DEB77C0169837A8382
:101B40000E94630D86E090E00E94EE1A8C0169818C
:101B50007A810E94DA19F701108B07870F900F9096
:101B6000DF91CF911F910F91FF90EF900895CF9348
:101B7000DF93EC0160E08E810E94F31081E090E041
:101B80000E94EB0F61E08E810E94F31081E090E0F3
:101B90000E94EB0F60E08E810E94F31084E690E0DB
:101BA000DF91CF910C94EB0FEF92FF920F931F9365
:101BB000CF93DF938C01C0E0D0E0E62EF12CB7018B
:101BC0000C2E02C0759567950A94E2F76170F801D2
:101BD000EC0FFD1F87810E94F3102196C430D105C0
:101BE00071F7C801DF91CF911F910F91FF90EF9096
:101BF0000C94B70DEF92FF920F931F93CF93DF9347
:101C00008C01C0E0D0E0E62EF12CB7010C2E02C012
:101C1000759567950A94E2F76170F801EC0FFD1F66
:101C200087810E94F3102196C830D10571F7C80151
:101C3000DF91CF911F910F91FF90EF900C94B70D12
:101C40001F93CF93DF93EC01162F642F8C810E949A
:101C5000F3108D818F3F19F060E00E94F3108F85A3
:101C6000612F84FF06C0CE01DF91CF911F910C94AC
:101C7000FA0D70E084E0759567958A95E1F7CE01DD
:101C80000E94D40D612FCE01DF91CF911F910C9452
:101C9000D40D40E00C94200E61E00E94490E80EDCE
:101CA00097E00C94EB0F443008F043E0FC012389EB
:101CB000421710F04FEF420FFC01E40FF11D248991
:101CC000260F2068622F0C94490EFC0160896B7FFF
:101CD000608B68600C94490EFC016089262F24609B
:101CE000208B6C600C94490E0F931F93CF93DF935E
:101CF000EC01423018F08F8588608F874B8B1C8AEF
:101D000080E48D8B6E8B70E0605C7F4F6F8B222345
:101D100029F0413019F48F8584608F8761E08C81D0
:101D20000E94BA108D818F3F19F061E00E94BA10B5
:101D300061E08E810E94BA1000E010E08F8584FF80
:101D400003C088E090E002C084E090E00817190723
:101D500054F4FE01E00FF11F61E087810E94BA1088
:101D60000F5F1F4FEBCF80E593EC0E94EB0F60E01D
:101D70008C810E94F31060E08E810E94F3108D81AF
:101D80008F3F19F060E00E94F3106F8564FD1DC065
:101D900063E0CE010E94D40D84E991E10E94EB0F33
:101DA00063E0CE010E94D40D84E991E10E94EB0F23
:101DB00063E0CE010E94D40D86E990E00E94EB0F13
:101DC00062E0CE010E94D40D16C06062CE010E9476
:101DD000490E84E991E10E94EB0F6F856062CE01AC
:101DE0000E94490E86E990E00E94EB0F6F856062C9
:101DF000CE010E94490E6F856062CE010E94490E9D
:101E000084E0888BCE010E946C0ECE010E944C0EA5
:101E100082E0898B66E0CE01DF91CF911F910F9117
:101E20000C94490ECF92EF920F93FC011382128211
:101E30008CEC93E09183808364838FEF858346836A
:101E400027830087E186C286138614861586168648
:101E5000178620E041E060E1CF010F91EF90CF9035
:101E60000C94740E41E00E94200E81E090E00895F1
:101E70001F920F920FB60F9211242F933F938F93BF
:101E80009F93AF93BF938091400490914104A091A0
:101E90004204B091430430913F0423E0230F2D37D7
:101EA00020F40196A11DB11D05C026E8230F02965E
:101EB000A11DB11D20933F048093400490934104E1
:101EC000A0934204B093430480914404909145044C
:101ED000A0914604B09147040196A11DB11D8093C5
:101EE000440490934504A0934604B0934704BF91E3
:101EF000AF919F918F913F912F910F900FBE0F90B7
:101F00001F9018952FB7F894609140047091410488
:101F100080914204909143042FBF08953FB7F894F5
:101F20008091440490914504A0914604B0914704E7
:101F300026B5A89B05C02F3F19F00196A11DB11D24
:101F40003FBF6627782F892F9A2F620F711D811D41
:101F5000911D42E0660F771F881F991F4A95D1F7A0
:101F600008958F929F92AF92BF92CF92DF92EF929D
:101F7000FF926B017C010E948E0F4B015C01C1142A
:101F8000D104E104F104F1F00E94F21A0E948E0FD4
:101F9000681979098A099B09683E73408105910592
:101FA00070F321E0C21AD108E108F10888EE880E2A
:101FB00083E0981EA11CB11CC114D104E104F104FA
:101FC00029F7DDCFFF90EF90DF90CF90BF90AF90DB
:101FD0009F908F9008958230910538F0880F991F57
:101FE000880F991F05970197F1F70895789484B5A4
:101FF000826084BD84B5816084BD85B5826085BD05
:1020000085B5816085BDEEE6F0E0808181608083EA
:10201000E1E8F0E0108280818260808380818160CD
:102020008083E0E8F0E0808181608083E1E9F0E096
:10203000808182608083808181608083E0E9F0E03C
:10204000808181608083E1ECF0E080818460808326
:10205000808182608083808181608083E3ECF0E016
:10206000808181608083E0ECF0E080818260808309
:10207000E2ECF0E0808181608083EAE7F0E080813B
:10208000846080838081826080838081816080839E
:102090008081806880830895823108F08251E82F22
:1020A000F0E0E652FF4FE49180917B00E3FB2227B2
:1020B00020F930E095E0220F331F9A95E1F78F7DEC
:1020C000822B80937B00E7708091220120E4829F25
:1020D000C0011124E82BE0937C0080917A00806499
:1020E00080937A0080917A0086FDFCCF8091780001
:1020F0002091790090E0922B089590E0FC013197B7
:10210000EF30F105B0F5EA5AFF4F0C94B01B809107
:1021100080008F7703C0809180008F7D8093800046
:10212000089580918000877FF9CF84B58F7702C0B2
:1021300084B58F7D84BD0895809190008F7707C00E
:10214000809190008F7D03C080919000877F809365
:10215000900008958091C0008F7703C08091C000E7
:102160008F7D8093C00008958091C200877F809307
:10217000C2000895CF93DF9390E0FC01EB5FFE4F28
:102180002491FC01EC5DFE4F8491882349F190E09D
:10219000880F991FFC01E15AFE4FA591B4918F5A07
:1021A0009E4FFC01C591D4919FB7611108C0F8946E
:1021B0008C91209582238C93888182230AC062307F
:1021C00051F4F8948C91322F309583238C9388812D
:1021D000822B888304C0F8948C91822B8C939FBFB0
:1021E000DF91CF9108950F931F93CF93DF931F92A9
:1021F000CDB7DEB7282F30E0F901EA51FF4F8491C7
:10220000F901EB5FFE4F1491F901EC5DFE4F049173
:102210000023C9F0882321F069830E947D10698121
:10222000E02FF0E0EE0FFF1FEF5AFE4FA591B491A3
:102230009FB7F8948C91611103C01095812301C060
:10224000812B8C939FBF0F90DF91CF911F910F91A6
:102250000895CF93DF93282F30E0F901EA51FF4F23
:102260008491F901EB5FFE4FD491F901EC5DFE4FD3
:10227000C491CC2391F081110E947D10EC2FF0E0ED
:10228000EE0FFF1FED5BFE4FA591B4912C912D2316
:1022900081E090E021F480E002C080E090E0DF91F6
:1022A000CF910895CF93DF931F92CDB7DEB76983A7
:1022B000DC01ED91FC910280F381E02D41E050E0E2
:1022C000BE016F5F7F4F09950F90DF91CF91089509
:1022D000CF93DF93EC018C859D8597FF05C082E04D
:1022E0000E9401169D878C878C859D85DF91CF91FB
:1022F000089583E00C949518FC018485958597FDDD
:1023000006C082E00E94A91590E00196089582E03F
:102310000E94A91590E00895FC018485958597FD9C
:1023200005C02FEF3FEF35872487089582E00C9496
:102330000116CF93DF93EC0180912E01882331F0B9
:1023400083E00E9432161816190634F081E090E0FE
:102350009B838A8380E090E0DF91CF910895FC0118
:1023600020812E5F208342E450E06DE671E080E83A
:102370000C94CD16FC0121818081813A59F42132DF
:1023800009F04BC047E050E067E271E080E00E9456
:10239000CD165EC0813209F040C0233289F48381BA
:1023A00090E0982F88273281832BA0E0B0E08093C3
:1023B000230190932401A0932501B09326010FC01F
:1023C000203239F467E070E087E291E00E94FE1667
:1023D00009C0223221F4828180932E0103C02D7F17
:1023E0002032B1F580919804811103C0E0E0F8E05B
:1023F00002C0EEEFFAE08091270190912801A091B0
:102400002901B0912A01803B9440A105B10511F545
:1024100080912E0180FF03C01DC080E00895EE3F33
:102420002AE0F20731F0808191819093FF0A809336
:10243000FE0A87E797E7918380832BE088E190E0AD
:102440000FB6F894A895809360000FBE20936000AB
:1024500081E0089588E10FB6F894809360001092AF
:1024600060000FBEA895EE3F8AE0F80739F0809132
:10247000FE0A9091FF0A91838083EACF1092FF0AAF
:102480001092FE0AE5CF2FEF3FEFFC01358724873E
:10249000089510924B0410924A0488EE93E0A0E055
:1024A000B0E080934C0490934D04A0934E04B093FD
:1024B0004F0484ED93E090934904809348048FEF98
:1024C0009FEF90935504809354040895FC01818DEF
:1024D000228D90E0805C9F4F821B91098F7399271A
:1024E0000895FC01918D828D981731F0828DE80F4F
:1024F000F11D858D90E008958FEF9FEF0895FC0109
:10250000918D828D981761F0828DDF01A80FB11D2A
:102510005D968C91928D9F5F9F73928F90E008954E
:102520008FEF9FEF089583E094E1892B49F080E0DD
:1025300090E0892B29F00E94031481110C94000073
:102540000895FC01848DDF01A80FB11DA35ABF4F70
:102550002C91848D90E001968F739927848FA689A2
:10256000B7892C93A089B1898C9180648C93938DC9
:10257000848D981306C00288F389E02D80818F7DB9
:1025800080830895CF93DF93EC01888D8823C9F071
:10259000EA89FB89808185FD05C0A889B9898C916C
:1025A00086FD0FC00FB607FCF5CF808185FFF2CF07
:1025B000A889B9898C9185FFEDCFCE010E94A11227
:1025C000E7CFDF91CF910895CF92DF92FF920F93E3
:1025D0001F93CF93DF931F92CDB7DEB76C0181E0DD
:1025E000D60158968C9358975B969C915B975C9616
:1025F0008C915C97981307C05096ED91FC91519780
:10260000808185FD2EC0F601038D10E00F5F1F4F06
:102610000F731127F02EF601848DF81211C00FB63A
:1026200007FCF9CFD6015096ED91FC91519780812E
:1026300085FFF1CFC60169830E94A1126981EBCFAA
:10264000838DE80FF11DE35AFF4F6083D6015B963F
:102650000C935B975296ED91FC9153978081806229
:102660000CC0D6015696ED91FC9157976083509619
:10267000ED91FC91519780818064808381E090E0AE
:102680000F90DF91CF911F910F91FF90DF90CF902E
:102690000895BF92CF92DF92EF92FF92CF93DF9394
:1026A000EC016A017B01B22EE889F98982E080831E
:1026B000411581EE580761057105A1F060E079E0F0
:1026C0008DE390E0A70196010E948E1B21503109F5
:1026D000410951095695479537952795211580E170
:1026E000380798F0E889F989108260E874E88EE18B
:1026F00090E0A70196010E948E1B215031094109EB
:1027000051095695479537952795EC85FD8530837A
:10271000EE85FF852083188EEC89FD89B082EA89D9
:10272000FB89808180618083EA89FB898081886060
:102730008083EA89FB89808180688083EA89FB89BC
:1027400080818F7D8083DF91CF91FF90EF90DF902C
:10275000CF90BF9008951F920F920FB60F92112441
:102760002F938F939F93EF93FF93E091A904F091A0
:10277000AA048081E091AF04F091B00482FD12C000
:1027800090818091B2048F5F8F732091B304821780
:1027900051F0E091B204F0E0E756FB4F958F809343
:1027A000B20401C08081FF91EF919F918F912F9191
:1027B0000F900FBE0F901F9018951F920F920FB69B
:1027C0000F9211242F933F934F935F936F937F93B7
:1027D0008F939F93AF93BF93EF93FF9389E994E017
:1027E0000E94A112FF91EF91BF91AF919F918F91A4
:1027F0007F916F915F914F913F912F910F900FBEFD
:102800000F901F90189589E994E00E94661221E0CC
:10281000892B09F420E0822F089510929C041092D5
:102820009B0488EE93E0A0E0B0E080939D04909339
:102830009E04A0939F04B093A00484EE93E0909331
:102840009A04809399048DEC90E09093A604809371
:10285000A5048CEC90E09093A8048093A70488ECE6
:1028600090E09093AA048093A90489EC90E090935F
:10287000AC048093AB048AEC90E09093AE04809318
:10288000AD048EEC90E09093B0048093AF0410926E
:10289000B2041092B3041092B4041092B5040895D7
:1028A000CF92DF92EF92FF920F931F93CF93DF931C
:1028B0007C016A01EB0100E010E00C151D0571F0D0
:1028C0006991D701ED91FC910190F081E02DC70154
:1028D0000995892B19F00F5F1F4FEFCFC801DF91CA
:1028E000CF911F910F91FF90EF90DF90CF900895BF
:1028F0006115710581F0DB010D900020E9F7AD0154
:1029000041505109461B570BDC01ED91FC910280AF
:10291000F381E02D099480E090E00895EF92FF921A
:102920000F931F93CF93DF938C017B01C0E0D0E026
:10293000F701EC0FFD1F6491662359F0F801A081A7
:10294000B181ED91FC91C8010995892B11F0219677
:10295000EFCFCE01DF91CF911F910F91FF90EF90BC
:102960000895DC01ED91FC91DB0114964D915C9191
:1029700015976D917C910280F381E02D09940C9460
:102980007814DC01ED91FC910190F081E02D099427
:1029900060EF73E00C9478140F931F93CF93DF9341
:1029A000EC010E94B1148C01CE010E94C814800F6A
:1029B000911FDF91CF911F910F9108950F931F9356
:1029C000CF93DF93EC010E9478148C01CE010E941A
:1029D000C814800F911FDF91CF911F910F9108951F
:1029E000615030F02091F100FC0120830196F8CF76
:1029F000289884E680933F05089540913A055091C8
:102A00003B05209138053091390542175307B4F43E
:102A10009091E8009570E1F39091E80092FD19C063
:102A20008093F10080913A0590913B0501968F7358
:102A30009927892B19F48EEF8093E80080913A054D
:102A400090913B05019690933B0580933A0581E078
:102A5000089580E00895CF92DF92EF92FF920F9356
:102A60001F93CF93DF931F92CDB7DEB7082F162F9A
:102A7000F42E862F880F8E5F99830E94FD1483E0C9
:102A80000E94FD14E02EC02E9981D92E8C2D8E1916
:102A9000811798F4F601F7FE02C0849101C080818D
:102AA0000E94FD14082F80E00E94FD148023FFEF98
:102AB000CF1ADF0A8111EACF01C081E00F90DF91C8
:102AC000CF911F910F91FF90EF90DF90CF900895DD
:102AD0008091D70081608093D70080EA8093D800EE
:102AE00089B5806189BD89B5826089BD09B400FE60
:102AF000FDCF61E070E080E090E00E94B10F809136
:102B0000D8008F7C80618093D8008091E000807F26
:102B10008093E0000895CF93DF931F92CDB7DEB787
:102B20001982CE0101960E94AF110E947A1BBE014C
:102B30006F5F7F4F0E94F31A89810F90DF91CF91D1
:102B400008952FB7FC012083F89467706093E90023
:102B50000895CF93DF931F92CDB7DEB7682FCE01D4
:102B600001960E94A1158091F20099819FBF0F905C
:102B7000DF91CF910895FF920F931F93CF93DF932F
:102B800000D0CDB7DEB7F62E8A0190913E0599238D
:102B900011F057FF03C08FEF9FEF2BC0682FCE01BE
:102BA00001967A830E94A1158091F20090E0A8011D
:102BB0007A81801791070CF4AC01EF2DF72FF40EFA
:102BC00084E6FE1639F0289880933F059091F10035
:102BD0009193F7CF4115510521F08091F2008823A0
:102BE00021F089818FBFCA0104C08BE68093E80081
:102BF000F8CF0F900F90DF91CF911F910F91FF9021
:102C00000895CF93DF931F92CDB7DEB741E050E038
:102C1000BE016F5F7F4F0E94BB15019719F4898138
:102C200090E002C08FEF9FEF0F90DF91CF9108955A
:102C3000CF93DF931F92CDB7DEB7682FCE010196F9
:102C40000E94A1159091E800892F807295FF04C021
:102C50009091F20080E4891B99819FBF0F90DF91D2
:102C6000CF9108956F927F928F929F92AF92BF9271
:102C7000CF92DF92EF92FF920F931F93CF93DF9348
:102C80001F92CDB7DEB7782E7B01C42EB52E809172
:102C90003E05882369F0042F152F8AEFD82E872D43
:102CA0008072982E9AE3A92E872D8074882E11C0E9
:102CB0008FEF9FEF57C0872D0E941816682E811145
:102CC0000CC0DA94A9F361E070E080E090E00E942B
:102CD000B10F0115110579F73BC0282F30E002171D
:102CE00013070CF4602E672DCE0101960E94A115EA
:102CF0008091E80085FF29C0262D30E0021B130BD0
:102D0000992039F06A948FEF6816B1F01092F100B3
:102D1000F9CFF701862D77FE07C0815058F09491C6
:102D20009093F1003196F9CF815020F091919093DA
:102D3000F100FACFE20EF31E8091E80085FF0FC08C
:102D40000115110511F481100AC089818FBFC1CF0F
:102D50005D9884E6809340058C2D9B2D03C0A09246
:102D6000E800F3CF0F90DF91CF911F910F91FF906B
:102D7000EF90DF90CF90BF90AF909F908F907F901B
:102D80006F9008951092E90010923B0510923A0559
:102D900090933905809338050895CF92DF92FF9282
:102DA0000F931F93CF93DF9300D0CDB7DEB7F82EEC
:102DB0008A016B0101151105B1F0F601F7FE02C0A1
:102DC000849101C0808149835A830E94FD1401507F
:102DD0001109FFEFCF1ADF0A49815A818111EACF29
:102DE0008FEF9FEF01C0CA010F900F90DF91CF913D
:102DF0001F910F91FF90DF90CF900895BF92CF92D7
:102E0000DF92EF92FF920F931F93CF93DF936C01AA
:102E10008B01EB013BEFB32E2097C1F07E01C13453
:102E2000D1051CF020E4E22EF12C8091E80082FF15
:102E3000FCCFC8018C1B9D0B6E2D8C0D9D1D0E941F
:102E4000F014B092E800CE19DF09E6CFC801DF9197
:102E5000CF911F910F91FF90EF90DF90CF90BF9097
:102E600008951F920F920FB60F921124DF92EF92E6
:102E7000FF920F931F932F933F934F935F936F9303
:102E80007F938F939F93AF93BF93EF93FF93CF93D2
:102E9000DF93CDB7DEB76C97DEBFCDBF1092E900F0
:102EA0008091E80083FF23C168E0CE0145960E942F
:102EB000F01482EF8093E8003D8937FF05C08091D0
:102EC000E80080FFFCCF03C08EEF8093E800832FE3
:102ED000807609F0F0C02E894F89D88C21110CC062
:102EE000303829F480913D058093F10002C01092A2
:102EF000F1001092F100F4C0842F90E09D29213060
:102F000049F43111EDC0019709F0EAC080913D0507
:102F10008D7F0AC0233059F43111E2C0019709F0C6
:102F2000DFC080913D05826080933D05D9C025308A
:102F300041F48091E80080FFFCCF40684093E300BB
:102F4000CFC0263009F08DC0EB8CFC8C22E0D21271
:102F50002CC080E090E00E94C2160E948B1599E080
:102F60008E010F5F1F4FF801292F11922A95E9F763
:102F70009983DA8291E09E8390EA98879AEF998705
:102F800020913A0530913B05275F3F4F3C832B83CF
:102F90008D83C7010E94C21649E050E0B80180E06D
:102FA0000E94CD160E948B159BC0C7010E94C216BD
:102FB0000E947A1BBE016B5E7F4F0E941C1B009714
:102FC00019F00CF08DC090C081E0D8120EC08B8D2E
:102FD0009C8D089719F481E080933705809137051F
:102FE00081112FC061EC71E031C0E3E0DE127CC0E2
:102FF0008F89882349F1823029F440E86BE08FED16
:1030000091E01CC0813029F440E86BE083ED91E051
:1030100015C0833009F068C00E947A1B8E010F5FD3
:103020001F4FB8010E943B1BF80101900020E9F7F7
:103030003197E01BF10B40E06E2FC8010E942B1569
:103040004DC06FEA71E002C06BEE71E06115710571
:1030500009F44AC0FB01449150E080E80E94CD167B
:103060003FC0273009F440C0283021F481E080932C
:10307000F10036C02930A1F53370B1F5E0E3F1E09D
:1030800081E021E036E39081992361F08093E900AB
:103090002093EB0091919093EC003093ED008F5FC3
:1030A000873089F78EE78093EA001092EA008F89D3
:1030B00080933E0515C08B8D9C8D0E94C216898D14
:1030C000811105C0CE0145960E94BA1107C00E9429
:1030D0007A1BBE016B5E7F4F0E945A1B882321F032
:1030E0008EEF8093E80003C081E28093EB006C9642
:1030F0000FB6F894DEBF0FBECDBFDF91CF91FF9129
:10310000EF91BF91AF919F918F917F916F915F915F
:103110004F913F912F911F910F91FF90EF90DF9072
:103120000F900FBE0F901F9018958093E90080912B
:10313000F200882319F08AE38093E80008951F9233
:103140000F920FB60F9211242F933F934F935F93DB
:103150006F937F938F939F93AF93BF93CF93EF938F
:10316000FF93C091E1008091E100837F8093E100B3
:103170008093E100C3FF0FC01092E90081E08093CB
:10318000EB001092EC0082E38093ED0010923E057C
:1031900088E08093F000C2FF19C083E00E94951878
:1031A00080914005882339F08091400581508093BB
:1031B0004005882389F180913F05882339F080916B
:1031C0003F05815080933F05882341F1C4FF10C023
:1031D0008091E2008E7E81608093E2008091E10028
:1031E0008F7E8093E10080913C058E7E806111C0CE
:1031F000C0FF16C08091E2008E7E80618093E20065
:103200008091E1008E7E8093E10080913C058E7E6E
:10321000816080933C0504C05D9ACDCF289AD6CFBB
:10322000FF91EF91CF91BF91AF919F918F917F913E
:103230006F915F914F913F912F910F900FBE0F9023
:103240001F90189510923E0510923D0510923C0576
:103250000E9468158091E1008E7E8093E1008DE0F0
:103260008093E200559A209AEEEFFFE785919491C2
:103270008B3F9C4D19F481E0809398040895FC01E4
:10328000808191810C946F1CCF93DF93EC01888136
:103290009981009711F00E946F1C198218821D827B
:1032A0001C821B821A82DF91CF9108950F931F9386
:1032B000CF93DF93EC018B016F5F7F4F8881998102
:1032C0000E94FE1C009731F0998388831B830A8338
:1032D00081E001C080E0DF91CF911F910F910895AF
:1032E000CF93DF93EC0188819981892B29F08A8122
:1032F0009B818617970760F4CE010E945619882398
:1033000041F08C819D81892B19F4E881F98110822B
:1033100081E0DF91CF910895EF92FF920F931F9379
:10332000CF93DF93EC017B018A01BA010E947019EF
:10333000811104C0CE010E94441907C01D830C8373
:10334000B701888199810E94D11DCE01DF91CF9173
:103350001F910F91FF90EF900895FC011182108250
:1033600013821282158214826115710559F0FB01D6
:1033700001900020E9F7AF0141505109461B570B5E
:103380000C948C190895CF93DF93EC01FB01861701
:10339000970761F0608171816115710529F04481A1
:1033A00055810E948C1902C00E944419CE01DF9100
:1033B000CF910895FC01118210821382128215822E
:1033C00014820C94C319CF93DF93EC01611571053E
:1033D00061F0FB0101900020E9F7AF014150510974
:1033E000461B570B0E948C1902C00E944419CE0143
:1033F000DF91CF9108950F931F93CF93DF93CDB7B4
:10340000DEB762970FB6F894DEBF0FBECDBF8C015A
:10341000CB01F8011182108213821282158214826C
:1034200050E0BE016F5F7F4F0E94D81DBE016F5FED
:103430007F4FC8010E94E31962960FB6F894DEBF71
:103440000FBECDBFDF91CF911F910F910895EF92E5
:10345000FF920F931F93CF93DF93CDB7DEB7A19762
:103460000FB6F894DEBF0FBECDBF7C01CB01BA0111
:10347000F70111821082138212821582148242E0B7
:10348000420F8E010F5F1F4F0E94B61BBC01C70188
:103490000E94E319A1960FB6F894DEBF0FBECDBF10
:1034A000DF91CF911F910F91FF90EF900895EF92D0
:1034B000FF920F931F93CF93DF93EC017B010C815D
:1034C0001D816115710511F480E016C0411551058B
:1034D00091F0040F151FB8010E9470198823A1F301
:1034E000288139818C819D81B701820F931F0E94B1
:1034F000D11D1D830C8381E0DF91CF911F910F912E
:10350000FF90EF900895FB014481558160817181A6
:103510000C94571A6115710559F0FB0101900020B8
:10352000E9F7AF0141505109461B570B0C94571A4C
:1035300080E00895CF93DF9300D0CDB7DEB76983E5
:103540001A8241E050E0BE016F5F7F4F0E94571A20
:103550000F900F90DF91CF910895CF93DF93EC01FF
:10356000FB0144815581608171810E94571A81114C
:1035700003C0CE010E944419CE01DF91CF9108957E
:10358000CF93DF93EC016115710569F0FB010190A8
:103590000020E9F7AF0141505109461B570B0E942B
:1035A000571A811103C0CE010E944419CE01DF9148
:1035B000CF91089508950E94F60F0E94DA1A86E3CB
:1035C00095E00E9422190E94DD01C3E9D2E10E9428
:1035D000FA032097E1F30E949312F9CF0C94D71BC2
:1035E0000C946F1C0895EF92FF920F931F93CF934B
:1035F000DF937B01FC01C281D38100E010E02097C2
:1036000081F0E881F9810280F381E02DB701CE01DC
:10361000099597FD08C0080F191F0884D985C02D8A
:10362000EECFC80102C08FEF9FEFDF91CF911F91C6
:103630000F91FF90EF9008950F931F93CF93DF9317
:103640008B01FC01C281D381209771F0E881F9815F
:103650000480F581E02DB801CE010995009731F481
:103660000884D985C02DF0CF80E090E0DF91CF9124
:103670001F910F9108950F931F93CF93DF938B01A9
:10368000FC01C281D381209771F0E881F981068025
:10369000F781E02DB801CE010995080F111D0884AE
:1036A000D985C02DF0CFF8011082DF91CF911F9105
:1036B0000F9108950F931F93CF93DF938B01FC011C
:1036C000C281D381209771F0E881F9810190F08166
:1036D000E02DB801CE010995811106C00884D98575
:1036E000C02DF0CF80E001C081E0DF91CF911F912C
:1036F0000F9108958091450581110DC082E080935E
:10370000410584E0809342051092440510924305E0
:1037100081E08093450581E495E00895A1E21A2EA9
:10372000AA1BBB1BFD010DC0AA1FBB1FEE1FFF1F65
:10373000A217B307E407F50720F0A21BB30BE40BB5
:10374000F50B661F771F881F991F1A9469F76095FC
:103750007095809590959B01AC01BD01CF010895B6
:10376000EE0FFF1F0590F491E02D0994EF920F9357
:103770001F93CF93DF93E80147FF02C034E101C0FC
:1037800034E0E42FFF27E7FDF095F7FF03C0F19544
:10379000E195F109E32E022F2E2FAE010E94081EA3
:1037A000CE01DF91CF911F910F91EF900895CF93AC
:1037B000DF938230910510F482E090E0E0914F05B4
:1037C000F091500520E030E0A0E0B0E0309739F112
:1037D0004081518148175907B8F04817590771F4CB
:1037E00082819381109729F013969C938E93129760
:1037F0002CC09093500580934F0527C021153105AB
:1038000031F04217530718F0A901DB0101C0EF01A5
:103810009A01BD01DF010280F381E02DD7CF211590
:103820003105F9F0281B390B2430310580F48A81E9
:103830009B816115710521F0FB019383828304C094
:103840009093500580934F05FE01329644C0FE01CF
:10385000E20FF31F8193919322503109398328831A
:103860003AC020914D0530914E05232B41F4209113
:1038700002013091030130934E0520934D052091B4
:103880000001309101012115310541F42DB73EB7FA
:103890004091040150910501241B350BE0914D0529
:1038A000F0914E05E217F307A0F42E1B3F0B2817EB
:1038B000390778F0AC014E5F5F4F2417350748F0A9
:1038C0004E0F5F1F50934E0540934D05819391938A
:1038D00002C0E0E0F0E0CF01DF91CF910895CF93F7
:1038E000DF93009709F487C0FC013297138212829C
:1038F000C0914F05D0915005209781F420813181EE
:10390000280F391F80914D0590914E05821793071E
:1039100079F5F0934E05E0934D056DC0DE0120E092
:1039200030E0AE17BF0750F412964D915C9113979B
:103930009D014115510509F1DA01F3CFB383A2834B
:1039400040815181840F951F8A179B0771F48D91D7
:103950009C911197840F951F0296918380831296F4
:103960008D919C911397938382832115310529F4BE
:10397000F0935005E0934F053EC0D9011396FC9398
:10398000EE9312974D915D91A40FB51FEA17FB07B7
:1039900079F480819181840F951F0296D901119647
:1039A0009C938E938281938113969C938E9312970E
:1039B000E0E0F0E08A819B81009719F0FE01EC01C4
:1039C000F9CFCE01029628813981820F931F209171
:1039D0004D0530914E052817390769F4309729F4C1
:1039E0001092500510924F0502C013821282D0939C
:1039F0004E05C0934D05DF91CF910895A0E0B0E052
:103A0000E4E0FDE10C947220EC01CB01209719F465
:103A10000E94D71BB8C0FE01E60FF71F9E0122507F
:103A20003109E217F30708F4ACC0D9010D911C91DC
:103A3000119706171707B8F00530110508F49FC055
:103A4000A801445051094617570708F498C002507E
:103A50001109061B170B019311936D937C93CF01F2
:103A60000E946F1C8CC05B01A01AB10A4E01800E2F
:103A7000911EA0914F05B0915005612C712C60E012
:103A800070E0109709F449C0A815B905C9F5ED9083
:103A9000FC901197670142E0C40ED11CCA14DB04EC
:103AA00078F147018A189B08640142E0C40ED11CDA
:103AB0001296BC9012971396AC91B5E0CB16D10438
:103AC00040F0B282A38391828082D9018D939C932E
:103AD00009C00E5F1F4F0E0D1F1DF90111830083DA
:103AE000EB2DFA2F6115710531F0DB011396FC9374
:103AF000EE93129744C0F0935005E0934F053FC0FA
:103B00006D917C9111976616770608F43B01BD0113
:103B100012960D90BC91A02DB4CF60914D0570917F
:103B20004E0568157905E9F468167906D0F44091D8
:103B30000001509101014115510541F44DB75EB7A7
:103B40006091040170910501461B570BE417F507BE
:103B5000C0F4F0934E05E0934D05F9019183808305
:103B60000EC00E94D71B7C01009759F0A801BE012E
:103B70000E94C81DCE010E946F1CC70104C0CE0167
:103B800002C080E090E0CDB7DEB7EEE00C948E206E
:103B9000FB01DC0102C001900D9241505040D8F76A
:103BA0000895FB01DC0101900D920020E1F70895DA
:103BB0004532510520F4423010F00C94E31DFB0116
:103BC0001082CB010895BB274A3031F4992322F4A7
:103BD000BDE2909581959F4F0C94EF1DBB27FB0193
:103BE0005527AA27880F991FAA1FA41710F0A41BF6
:103BF00083955051B9F7A05DAA3308F0A95DA19350
:103C0000009779F7B111B1931192CB010C945E201A
:103C10006F927F929F92AF92BF92CF92DF92EF927C
:103C2000FF920F931F93CF93DF93CDB7DEB7299702
:103C30000FB6F894DEBF0FBECDBF6A01B22E102FB3
:103C40000C3320F4FF24F394F00E02C04CE3F42E66
:103C50000F2D27E0AE014F5F5F4F0E94861F7981D5
:103C6000272F2970213031F0E1FC06C0E0FC06C0AE
:103C700060E005C06DE203C06BE201C060E2AE2D02
:103C8000A07173FF36C0662311F084E001C083E0A9
:103C90008B1510F4B81A01C0B12CA1110BC0F6019C
:103CA0008B2D90E2882319F091938150FBCFCB0CA0
:103CB000D11CB12C662331F0F601608396012F5F91
:103CC0003F4F6901C6010396E2FE05C02EE4F601EE
:103CD000208331E404C02EE6F601208331E63183EF
:103CE0002283FC012B2D30E22223F1F1319321506C
:103CF000FBCF72FF40C0662311F084E001C083E077
:103D00008B1510F4B81A01C0B12CA1110BC0F6012B
:103D10008B2D90E2882319F091938150FBCFCB0C2F
:103D2000D11CB12C662331F0F601608396012F5F20
:103D30003F4F6901C6010396E2FE07C029E4F60180
:103D400020832EE4218326E406C029E6F6012083A1
:103D50002EE6218326E62283FC012B2D30E222234E
:103D600019F031932150FBCFFC01EB0DF11D1082B6
:103D70008EEF9FEFB7C0B1E0611101C0B0E04B2FF3
:103D800050E01816190624F49C012F5F3F4F02C023
:103D900021E030E0240F351F112329F0412F50E09E
:103DA0004F5F5F4F02C040E050E0420F531F2B2D8A
:103DB00030E04217530714F4B41A01C0B12C2E2D71
:103DC000287159F4F6012B2D30E2222319F031939A
:103DD0002150FBCFCB0CD11CB12CBB2331F0F60111
:103DE000608396012F5F3F4F6901A1110BC0F6015F
:103DF0002B2D30E3222319F031932150FBCFCB0C34
:103E0000D11CB12CF80E0A81372F3071A32E74FF0C
:103E100003C0013309F4FA941F142CF42F2D293018
:103E200018F028E001C021E0682F392F97FF02C069
:103E300060E030E0462F532F612C712C3EE2932E30
:103E4000BC01621B71099B01DC01A41BB50BE1E005
:103E5000F0E0EC0FFD1FAE0FBF1FE12EF12CF1942F
:103E6000E194F1084F3FFFEF5F0731F4F6019082D4
:103E7000B6016F5F7F4F6B01841795074CF02417D5
:103E8000350734F4BD01660D771DFB01118101C0BA
:103E900010E341505109FFEF6F1A7F0AB6016F5FBF
:103EA0007F4F4E155F0524F0F60110836B01DACFCA
:103EB0004817590739F4063320F4053319F4A110D3
:103EC00001C011E3F6011083FB018B2D90E28823E2
:103ED00019F091938150FBCFFB01EB0DF11D108286
:103EE00080E090E029960FB6F894DEBF0FBECDBFFC
:103EF000DF91CF911F910F91FF90EF90DF90CF90C6
:103F0000BF90AF909F907F906F900895283008F0F9
:103F100027E03327DA01990F311D87FD9160009664
:103F20006105710539F432602E5F3D9330E32A95C7
:103F3000E1F708959F3F30F080387105610509F081
:103F40003C5F3C5F3D93913008F08068911DDF93AA
:103F5000CF931F930F93FF92EF92192F987F96950F
:103F6000E92F96959695E90FFF27E75BFD4F992777
:103F70003327EE24FF24A701E70105900894079456
:103F800028F4360FE71EF81E491F511D660F771FD4
:103F9000881F991F0694A1F70590079428F4E70E4F
:103FA000F81E491F561FC11D770F881F991F661FD6
:103FB0000694A1F70590079428F4F80E491F561FA0
:103FC000C71FD11D880F991F661F771F0694A1F781
:103FD0000590079420F4490F561FC71FD81F990F4B
:103FE000661F771F881F0694A9F784911095177094
:103FF00041F0D695C79557954795F794E7941A954C
:10400000C1F7EFEEF1E06894159015913591659147
:10401000959105907FE27395E118F10A430B560BD9
:10402000C90BD009C0F7E10CF11E431F561FC91F71
:10403000D01D7EF4703311F48A95E6CFE8940150D8
:1040400030F0080F0AF40027021708F4202F2395F8
:10405000022F7A3328F079E37D932A95E9F710C08F
:104060007D932A9589F606949795679537951795C8
:104070001794E118F10A430B560BC90BD00998F0BD
:1040800023957E9173957A3308F070E37C93201327
:10409000B8F77E9170617D9330F0839571E37D93E5
:1040A00070E32A95E1F71124EF90FF900F911F9193
:1040B000CF91DF91992787FD90950895DC01FC0150
:1040C000672F71917723E1F7329704C07C916D934C
:1040D00070836291AE17BF07C8F308952F923F9285
:1040E0004F925F926F927F928F929F92AF92BF9208
:1040F000CF92DF92EF92FF920F931F93CF93DF93B4
:10410000CDB7DEB7CA1BDB0B0FB6F894DEBF0FBE10
:10411000CDBF09942A88398848885F846E847D845D
:104120008C849B84AA84B984C884DF80EE80FD805F
:104130000C811B81AA81B981CE0FD11D0FB6F894D5
:10414000DEBF0FBECDBFED01089512E0C4EFD2E097
:1041500004C0FE010E94B21B2296C63FD107C9F7D8
:04416000F894FFCF01
:10416400000051058000000020413333F33F9A9949
:10417400C9400600120019004B00030002030405A5
:104184000D0001FFFFFFFF00E10000000000000040
:10419400C180810000005858585858585831303060
:1041A4005765656B20002020202020202020004916
:1041B400506C616E74205620312E373000413D0022
:1041C4006D4C2020423D006D4C0053746174757336
:1041D40020202020005374617274656420004C69AF
:1041E4006768744379636C6520002D0050756D70A9
:1041F400206F6E004C69676874206F6E004F4E002C
:104204004F4646004448543131004448543131202B
:10421400202020202000526561642073656E736F36
:10422400723A200048756D696469747920282529DB
:104234003A200054656D706572617475726520284A
:1042440043293A200054656D706572617475726516
:10425400202846293A200054656D70657261747592
:10426400726520284B293A200044657720506F69F5
:104274006E742028C2B043293A2000446577205048
:104284006F696E74466173742028C2B043293A2062
:104294000064617465002B25442D2554002C002FE7
:1042A4006D6E742F73642F646174616C6F672E7408
:1042B4007874006572726F72206F70656E696E67D4
:1042C40020646174616C6F672E74787400454320B8
:1042D40020007068202020202000526573202020B8
:1042E40020202020004C20202020004C6576656C86
:1042F4002020202020200070776D383D30202020A1
:1043040070776D393D300070776D363D0020202088
:104314002070776D373D300041333D302020202020
:1043240041343D3020202020200041313D302020E8
:104334002041323D30202020200041373D302020D4
:10434400202041383D3020202020200041353D30C0
:1043540020202041363D3020202020004131313DB5
:104364003020204131323D302020202020004139AE
:104374003D302020204131303D3020202000537733
:104384006974636832203D2000537769746368312F
:10439400203D2000436F6E6E6563746564202020A9
:1043A400200049503A203139322E3136382E312E00
:1043B400363820202000524541442054454D502099
:1043C4002020202020200030352D32352D3136009C
:1043D4006C732000207C2061776B20274E523D3D7A
:1043E4000027002F006C73006D6B646972002D70E0
:1043F40000726D00726D6469720000000000FC09B7
:10440400130A970B6C0B840B120AFE002F62696E61
:104414002F617368002D630000000000FC0B501432
:10442400510C5B0C730CFB0B00000000320F50149A
:1044340000000000521199117C118C11681179113E
:1044440000000000E412501466127F127112C212AE
:104454000D0A006E616E00696E66006F7666002E4E
:02446400000056
:1070000055C000006EC000006CC000006AC00000E7
:1070100068C0000066C0000064C0000062C00000DC
:1070200060C000005EC00000FCC400005AC0000048
:1070300058C0000056C0000054C0000052C00000FC
:1070400050C000005DC000004CC000004AC00000FD
:1070500048C0000046C0000044C0000042C000001C
:1070600040C000003EC000003CC000003AC000002C
:1070700038C0000036C0000034C0000032C000003C
:1070800030C000002EC000002CC000002AC000004C
:1070900028C0000026C0000024C0000022C000005C
:1070A00020C000001EC000001CC0000011241FBE34
:1070B000CFEFDAE0DEBFCDBF11E0A0E0B1E0E6E463
:1070C000FFE702C005900D92A63AB107D9F711E08B
:1070D000A6EAB1E001C01D92AF3BB107E1F74FD383
:1070E00030C78ECFF89410926F001092810081E02B
:1070F00085BF15BE47985D9A289A0C9400000895A4
:107100001F920F920FB60F9211242F938F939F937C
:10711000EF93FF9310928500109284008091A60156
:107120009091A701009741F001979093A701809358
:10713000A601892B09F45D9A8091A8019091A9017B
:10714000009741F001979093A9018093A801892BA2
:1071500009F4289A8091AC019091AD010196909329
:10716000AD018093AC01E0E0F0E0859194918F5FF8
:107170009F4F49F08091AA019091AB0101969093A5
:10718000AB018093AA01FF91EF919F918F912F9175
:107190000F900FBE0F901F90189584E08093E90028
:1071A0000DC08091E8008B778093E80003C08EB318
:1071B000882351F08091E80082FFF9CF8091E800A8
:1071C00085FFEFCF8091F1000895982F83E08093A1
:1071D000E9008091E80085FD0DC08091E8008E7780
:1071E0008093E80003C08EB3882369F08091E800A3
:1071F00080FFF9CF9093F1005D9884E690E0909342
:10720000A7018093A60108954F925F926F927F929B
:107210008F929F92AF92BF92CF92DF92EF92FF92A6
:107220000F931F93CF93DF9384E08093E9008091C5
:10723000E80082FF57C2289884E690E09093A90165
:107240008093A801AADF182F853481F48CE49DE196
:107250009093AB018093AA0107B600FCFDCFF9998A
:10726000FECF81E180935700E89503C0843519F47F
:1072700094DF8DE00DC28C34E1F38035D1F3843797
:1072800021F484E4A2DF80E003C2813611F489E5B1
:10729000FFC18134B1F481DF182F7FDF90E0880FC8
:1072A000991FAA2797FDA095BA2F312F330F20E001
:1072B000442737FD4095542F822B932BA42BB52BBD
:1072C000B8C1803711F483E5E3C1833549F4C0E0E8
:1072D000D1E089917ADF21E0C730D207D1F7D9C157
:1072E000863521F481E371DF80E3D2C1833731F445
:1072F00087E86BDF85E969DF8EE1CAC18536B9F4BD
:10730000E0E0F0E093E085E090935700E89507B661
:1073100000FCFDCF80935700E89507B600FCFDCF39
:10732000E058FF4FA0E7E030FA0771F7A2CF8237AD
:1073300039F4E1E0F0E089E0809357008491A8C13E
:10734000863439F4E0E0F0E089E0809357008491DE
:107350009FC18E3439F4E3E0F0E089E08093570078
:10736000849196C1813539F4E2E0F0E089E08093C0
:10737000570084918DC1823631F489E526DF80E0A3
:1073800024DF80E885C1823419F0873609F0E5C032
:107390001092AB011092AA0100DF082FFEDEF82E3A
:1073A000FCDE682E8554823008F071C1902F80E099
:1073B000CF2DD0E0C82BD92B10926F00173609F0D3
:1073C0004BC081E180935700E895DD24CC24C39421
:1073D0003FC0E090AF01F090B0010091B101109179
:1073E000B201B6E46B16D9F4ED2DF0E0EE29FF29D9
:1073F000E4918E2FEADEDD2081F082E090E0A0E0D3
:10740000B0E0E80EF91E0A1F1B1FE092AF01F092D8
:10741000B0010093B1011093B201DC2418C0D8016F
:10742000C701B695A7959795879575D5CEDE82E06D
:1074300090E0A0E0B0E0E80EF91E0A1F1B1FE092EA
:10744000AF01F092B0010093B1011093B201219706
:10745000209709F0BECF7DC08090AF019090B00121
:10746000A090B101B090B20196E4691609F05DC038
:1074700083E0F40180935700E89507B600FCFDCF48
:1074800054C0F6E46F1661F5772031F1E090AF015A
:10749000F090B0010091B1011091B2017EDED82EC2
:1074A000CC24852D90E08C299D29F7010C01409278
:1074B0005700E895112482E090E0A0E0B0E0E80EEB
:1074C000F91E0A1F1B1FE092AF01F092B00100935A
:1074D000B1011093B20102C060DE582E742423C0A3
:1074E000E090AF01F090B0010091B1011091B201B4
:1074F00016950795F794E79450DE682FC70113D5CA
:107500008091AF019091B001A091B101B091B20111
:107510000296A11DB11D8093AF019093B001A0937D
:10752000B101B093B201219704C0552477244424BB
:107530004394209709F0A5CF96E4691641F485E0BD
:10754000F40180935700E89507B600FCFDCF8DE06D
:107550003CDE82E080936F009CC0833471F4009124
:10756000AF011091B00119DE90E021E0F8010C01AB
:1075700020935700E89511247CCE833619F5E090CE
:10758000AF01F090B0010091B1011091B20105DEA0
:10759000F701E16090E021E00C0120935700E895AD
:1075A000112482E090E0A0E0B0E0E80EF91E0A1F8E
:1075B0001B1FE092AF01F092B0010093B101109354
:1075C000B20157CE8D3661F4E091AF01F091B00178
:1075D00085E080935700E89507B600FCFDCF49CEC3
:1075E000823551F4E091AF01F091B0010591149111
:1075F000812FEBDD802F4CC0843421F5E090AF016A
:10760000F090B0010091B1011091B201169507956B
:10761000F794E794C2DD682FC70185D48091AF014C
:107620009091B001A091B101B091B2010296A11D5B
:10763000B11D8093AF019093B001A093B101B093BD
:10764000B20117CE843609F5E090AF01F090B00199
:107650000091B1011091B201D801C701B695A7956B
:107660009795879558D4B1DD82E090E0A0E0B0E036
:10767000E80EF91E0A1F1B1FE092AF01F092B00145
:107680000093B1011093B20104C08B3111F08FE36C
:107690009CDD83E08093E9009091E8008091E80010
:1076A0008E778093E80095FF04C010C08EB38823C6
:1076B000C9F08091E80080FFF9CF8091E8008E77D3
:1076C0008093E80003C08EB3882361F08091E800C6
:1076D00080FFF9CF84E08093E9008091E8008B7708
:1076E0008093E800DF91CF911F910F91FF90EF9071
:1076F000DF90CF90BF90AF909F908F907F906F90D2
:107700005F904F9008959091B701892F8F778132C4
:1077100049F58091B8018032A1F0813219F5913A92
:1077200009F58091E800877F8093E8008CE091E084
:1077300067E070E027D28091E8008B778093E800C3
:107740000895913279F48091E800877F8093E80072
:107750008CE091E067E070E079D28091E8008E776C
:107760008093E800089582E061EC42E0D1D083E0AC
:1077700061E842E1CDD084E060E842E1C9C01F93F6
:10778000209100081092000844B714BE88E10FB69B
:10779000F89480936000109260000FBE80E8E0E0F3
:1077A000F0E00FB6F89480936100E09361000FBEA3
:1077B00031E035BF92E095BF3F9A209A559A809369
:1077C00061001092610047985D9A289A1092890092
:1077D0008AEF8093880090936F0083E0809381000C
:1077E000859194918F5F9F4F11F03093AE01942F4C
:1077F00041FF19C0809109012817A9F08093000862
:10780000789480911301882339F08091AC01909194
:10781000AD018F5E9240C8F310920008F89481E0A9
:10782000809313010CC090FF04C08091AE018823A7
:1078300051F493FF09C080910901281729F0809124
:10784000AE01882309F04EDCD4D078941092AB01BD
:107850001092AA011EEF20C0D7DC4BD38091AA0161
:107860009091AB0181549F4110F0109213018091CF
:10787000B3019091B40101969093B4018093B30148
:10788000292F97FF03C0512F591B252F220F28178F
:1078900010F4479801C0479A809113018823E1F6BC
:1078A0008091E00081608093E0001CDC80E090E04B
:1078B0001F910895FA01923049F0933061F09130B0
:1078C000F9F484E191E022E130E01EC086E291E02B
:1078D0002EE330E019C0882329F484E691E024E007
:1078E00030E012C0813029F488E691E022E230E0F5
:1078F0000BC0823029F48CE891E028E130E004C02C
:1079000080E090E020E030E091838083C901089519
:107910008093E9008091EB0081608093EB001092EE
:10792000ED006093EC004093ED008091EE00881F25
:107930008827881F08958091B70188238CF403C09D
:107940008EB38823B1F08091E80082FFF9CF809157
:10795000E8008B778093E80008958EB3882349F080
:107960008091E80080FFF9CF8091E8008E778093C6
:10797000E8000895EF92FF920F931F9345D04CD0EB
:1079800008ED10E0F80180818F7780838081806826
:10799000808380818F7D808319BC1EBA1092B501CF
:1079A00080EEE82EF12CF70180818B7F8083F80137
:1079B00080818160808380E060E042E0A9DFE1EEC9
:1079C000F0E080818E7F8083E2EEF0E08081816054
:1079D0008083808188608083F70180818E7F8083AF
:1079E000F8018081806180831F910F91FF90EF905B
:1079F0000895E7EDF0E08081816080838AE482BFB2
:107A000081E08093B601B6CFE8EDF0E080818E7F13
:107A100080831092E20008951092DA001092E10043
:107A200008951F920F920FB60F9211242F933F9338
:107A30004F935F936F937F938F939F93AF93BF9376
:107A4000EF93FF938091DA0080FF1BC08091D800F4
:107A500080FF17C08091DA008E7F8093DA008091DA
:107A6000D90080FF0BC080E189BD82E189BD09B4E6
:107A700000FEFDCF81E08EBB3BD203C019BC1EBA15
:107A800037D28091E10080FF17C08091E20080FF33
:107A900013C08091E2008E7F8093E2008091E2002B
:107AA00080618093E2008091D80080628093D8004A
:107AB00019BC85E08EBB1CD28091E10084FF2CC0F4
:107AC0008091E20084FF28C080E189BD82E189BD08
:107AD00009B400FEFDCF8091D8008F7D8093D8003F
:107AE0008091E1008F7E8093E1008091E2008F7EA3
:107AF0008093E2008091E20081608093E2008091B7
:107B0000B501882331F48091E30087FD02C081E054
:107B100001C084E08EBBECD18091E10083FF21C0E5
:107B20008091E20083FF1DC08091E100877F8093F8
:107B3000E10082E08EBB1092B5018091E1008E7F62
:107B40008093E1008091E2008E7F8093E20080913B
:107B5000E20080618093E20080E060E042E0D8DEF5
:107B6000C7D1FF91EF91BF91AF919F918F917F917D
:107B70006F915F914F913F912F910F900FBE0F909A
:107B80001F9018959C014091BD015091BE01461770
:107B9000570718F4F90190E044C06115710511F020
:107BA000AB01F8CF8091E8008E778093E80040E049
:107BB00050E0F0CF8EB3882309F444C0853009F437
:107BC00043C08091E80083FF02C081E00895809166
:107BD000E80082FD31C08091E80080FF22C08091E2
:107BE000F3009091F200782F60E0292F30E0262BEF
:107BF000372B07C081918093F100415050402F5F97
:107C00003F4F4115510519F02830310598F390E0A8
:107C10002830310509F491E08091E8008E77809357
:107C2000E8004115510531F6992321F605C08EB3C0
:107C3000882341F0853041F08091E80082FFF7CF42
:107C400080E0089582E0089583E008959C01611525
:107C5000710529F48091E8008B778093E800F901A1
:107C600026C08EB3882391F1853091F18091E80090
:107C700083FF02C081E008958091E80082FFF1CF88
:107C800006C08091F10081936150704059F02091BD
:107C9000F3008091F200322F20E090E0822B932BB2
:107CA000892B79F78091E8008B778093E800611544
:107CB0007105B9F605C08EB3882341F0853041F0D7
:107CC0008091E80080FFF7CF80E0089582E008957A
:107CD00083E008950F931F93DF93CF9300D0CDB728
:107CE000DEB7E7EBF1E08091F100819381E0EF3BBB
:107CF000F807C9F708DD8091E80083FFE4C08091B0
:107D0000B7019091B801953009F46DC0963040F4F8
:107D1000913081F1913070F0933009F0D4C02AC0D5
:107D2000983009F4A3C0993009F4B2C0963009F034
:107D3000CAC07CC0803809F4C6C0823809F0C3C00C
:107D40008091BB0187708093E9008091EB001092D5
:107D5000E9002091E800277F2093E80090E025E0EB
:107D6000969587952A95E1F781708093F10010929E
:107D7000F10087C0882319F0823009F0A4C08F7108
:107D8000823009F0A0C08091B901882331F520919B
:107D9000BB01277009F497C02093E9008091EB00A4
:107DA00080FF1BC0933021F48091EB00806213C0F0
:107DB0008091EB0080618093EB0081E090E002C055
:107DC000880F991F2A95E2F78093EA001092EA0043
:107DD0008091EB0088608093EB001092E900809125
:107DE000E800877F51C0882309F06DC01091B90168
:107DF0001F770FB7F8948091E800877F8093E800A1
:107E00009ADD8091E80080FFFCCF8091E3008078CC
:107E1000812B8093E30080688093E300112311F4A9
:107E200082E001C083E08EBB0FBF4DC0805882301E
:107E300008F049C08091B9019091BA016091BB01ED
:107E4000AE014F5F5F4F36DDBC01009709F43BC0C8
:107E50008091E800877F8093E80089819A8192DE93
:107E60008091E8008B778093E8002DC0803859F529
:107E70008091E800877F8093E8008091B50180932E
:107E8000F1008091E8008E778093E80054DD1BC0FC
:107E90008823C9F49091B9019230A8F48091E80048
:107EA000877F8093E8009093B50145DD8091B5010F
:107EB000882331F48091E30087FD02C081E001C096
:107EC00084E08EBB50DC8091E80083FF0AC0809183
:107ED000EB0080628093EB008091E800877F8093C5
:107EE000E8000F900F90CF91DF911F910F910895AF
:107EF00008951F938EB3882361F01091E9001092CA
:107F0000E9008091E80083FF01C0E4DE1770109360
:107F1000E9001F910895F999FECF92BD81BDF89AAD
:107F2000992780B50895262FF999FECF1FBA92BDE3
:107F300081BD20BD0FB6F894FA9AF99A0FBE01964A
:067F40000895F894FFCF44
:107F46004341544552494E41007700080000000065
:107F5600000008011201100102000008412341003F
:107F660001000201000109023E00020100803209FF
:107F7600040000010202010005240010010424028D
:107F8600040524060001070582030800FF09040111
:107F960000020A000000070504021000010705831D
:107FA6000210000104030904220341007200640068
:107FB600750069006E006F002000590075006E00A4
:107FC60020002000200020002000000018034100AF
:107FD60072006400750069006E006F0020004C009E
:067FE6004C004300000006
:040000030000700089
:00000001FF
